{"contracts/test/DexLibraryTest.sol":{"DexLibraryTest":{"abi":[{"inputs":[{"internalType":"uint256","name":"amountIn","type":"uint256"},{"internalType":"uint256","name":"reserveIn","type":"uint256"},{"internalType":"uint256","name":"reserveOut","type":"uint256"}],"name":"getAmountOut","outputs":[{"internalType":"uint256","name":"amountOut","type":"uint256"}],"stateMutability":"pure","type":"function"},{"inputs":[{"internalType":"uint256","name":"amountA","type":"uint256"},{"internalType":"uint256","name":"reserveA","type":"uint256"},{"internalType":"uint256","name":"reserveB","type":"uint256"}],"name":"quote","outputs":[{"internalType":"uint256","name":"amountB","type":"uint256"}],"stateMutability":"pure","type":"function"}],"evm":{"bytecode":{"linkReferences":{},"object":"608060405234801561001057600080fd5b506105f8806100206000396000f3fe608060405234801561001057600080fd5b50600436106100365760003560e01c8063054d50d41461003b578063ad615dec1461006b575b600080fd5b6100556004803603810190610050919061029f565b61009b565b6040516100629190610301565b60405180910390f35b6100856004803603810190610080919061029f565b6100b1565b6040516100929190610301565b60405180910390f35b60006100a88484846100c7565b90509392505050565b60006100be8484846101b1565b90509392505050565b600080841161010b576040517f08c379a00000000000000000000000000000000000000000000000000000000081526004016101029061039f565b60405180910390fd5b60008311801561011b5750600082115b61015a576040517f08c379a000000000000000000000000000000000000000000000000000000000815260040161015190610431565b60405180910390fd5b60006103e58561016a9190610480565b90506000838261017a9190610480565b90506000826103e88761018d9190610480565b61019791906104c2565b905080826101a59190610525565b93505050509392505050565b60008084116101f5576040517f08c379a00000000000000000000000000000000000000000000000000000000081526004016101ec906105a2565b60405180910390fd5b6000831180156102055750600082115b610244576040517f08c379a000000000000000000000000000000000000000000000000000000000815260040161023b90610431565b60405180910390fd5b8282856102519190610480565b61025b9190610525565b90509392505050565b600080fd5b6000819050919050565b61027c81610269565b811461028757600080fd5b50565b60008135905061029981610273565b92915050565b6000806000606084860312156102b8576102b7610264565b5b60006102c68682870161028a565b93505060206102d78682870161028a565b92505060406102e88682870161028a565b9150509250925092565b6102fb81610269565b82525050565b600060208201905061031660008301846102f2565b92915050565b600082825260208201905092915050565b7f4465784c6962726172793a20494e53554646494349454e545f494e5055545f4160008201527f4d4f554e54000000000000000000000000000000000000000000000000000000602082015250565b600061038960258361031c565b91506103948261032d565b604082019050919050565b600060208201905081810360008301526103b88161037c565b9050919050565b7f4465784c6962726172793a20494e53554646494349454e545f4c49515549444960008201527f5459000000000000000000000000000000000000000000000000000000000000602082015250565b600061041b60228361031c565b9150610426826103bf565b604082019050919050565b6000602082019050818103600083015261044a8161040e565b9050919050565b7f4e487b7100000000000000000000000000000000000000000000000000000000600052601160045260246000fd5b600061048b82610269565b915061049683610269565b92508282026104a481610269565b915082820484148315176104bb576104ba610451565b5b5092915050565b60006104cd82610269565b91506104d883610269565b92508282019050808211156104f0576104ef610451565b5b92915050565b7f4e487b7100000000000000000000000000000000000000000000000000000000600052601260045260246000fd5b600061053082610269565b915061053b83610269565b92508261054b5761054a6104f6565b5b828204905092915050565b7f4465784c6962726172793a20494e53554646494349454e545f414d4f554e5400600082015250565b600061058c601f8361031c565b915061059782610556565b602082019050919050565b600060208201905081810360008301526105bb8161057f565b905091905056fea2646970667358221220f4874d93410973eb6d29f2ced2ac45a0cc5b87dd7baedf653536b47f0f6a150364736f6c63430008120033","opcodes":"PUSH1 0x80 PUSH1 0x40 MSTORE CALLVALUE DUP1 ISZERO PUSH2 0x10 JUMPI PUSH1 0x0 DUP1 REVERT JUMPDEST POP PUSH2 0x5F8 DUP1 PUSH2 0x20 PUSH1 0x0 CODECOPY PUSH1 0x0 RETURN INVALID PUSH1 0x80 PUSH1 0x40 MSTORE CALLVALUE DUP1 ISZERO PUSH2 0x10 JUMPI PUSH1 0x0 DUP1 REVERT JUMPDEST POP PUSH1 0x4 CALLDATASIZE LT PUSH2 0x36 JUMPI PUSH1 0x0 CALLDATALOAD PUSH1 0xE0 SHR DUP1 PUSH4 0x54D50D4 EQ PUSH2 0x3B JUMPI DUP1 PUSH4 0xAD615DEC EQ PUSH2 0x6B JUMPI JUMPDEST PUSH1 0x0 DUP1 REVERT JUMPDEST PUSH2 0x55 PUSH1 0x4 DUP1 CALLDATASIZE SUB DUP2 ADD SWAP1 PUSH2 0x50 SWAP2 SWAP1 PUSH2 0x29F JUMP JUMPDEST PUSH2 0x9B JUMP JUMPDEST PUSH1 0x40 MLOAD PUSH2 0x62 SWAP2 SWAP1 PUSH2 0x301 JUMP JUMPDEST PUSH1 0x40 MLOAD DUP1 SWAP2 SUB SWAP1 RETURN JUMPDEST PUSH2 0x85 PUSH1 0x4 DUP1 CALLDATASIZE SUB DUP2 ADD SWAP1 PUSH2 0x80 SWAP2 SWAP1 PUSH2 0x29F JUMP JUMPDEST PUSH2 0xB1 JUMP JUMPDEST PUSH1 0x40 MLOAD PUSH2 0x92 SWAP2 SWAP1 PUSH2 0x301 JUMP JUMPDEST PUSH1 0x40 MLOAD DUP1 SWAP2 SUB SWAP1 RETURN JUMPDEST PUSH1 0x0 PUSH2 0xA8 DUP5 DUP5 DUP5 PUSH2 0xC7 JUMP JUMPDEST SWAP1 POP SWAP4 SWAP3 POP POP POP JUMP JUMPDEST PUSH1 0x0 PUSH2 0xBE DUP5 DUP5 DUP5 PUSH2 0x1B1 JUMP JUMPDEST SWAP1 POP SWAP4 SWAP3 POP POP POP JUMP JUMPDEST PUSH1 0x0 DUP1 DUP5 GT PUSH2 0x10B JUMPI PUSH1 0x40 MLOAD PUSH32 0x8C379A000000000000000000000000000000000000000000000000000000000 DUP2 MSTORE PUSH1 0x4 ADD PUSH2 0x102 SWAP1 PUSH2 0x39F JUMP JUMPDEST PUSH1 0x40 MLOAD DUP1 SWAP2 SUB SWAP1 REVERT JUMPDEST PUSH1 0x0 DUP4 GT DUP1 ISZERO PUSH2 0x11B JUMPI POP PUSH1 0x0 DUP3 GT JUMPDEST PUSH2 0x15A JUMPI PUSH1 0x40 MLOAD PUSH32 0x8C379A000000000000000000000000000000000000000000000000000000000 DUP2 MSTORE PUSH1 0x4 ADD PUSH2 0x151 SWAP1 PUSH2 0x431 JUMP JUMPDEST PUSH1 0x40 MLOAD DUP1 SWAP2 SUB SWAP1 REVERT JUMPDEST PUSH1 0x0 PUSH2 0x3E5 DUP6 PUSH2 0x16A SWAP2 SWAP1 PUSH2 0x480 JUMP JUMPDEST SWAP1 POP PUSH1 0x0 DUP4 DUP3 PUSH2 0x17A SWAP2 SWAP1 PUSH2 0x480 JUMP JUMPDEST SWAP1 POP PUSH1 0x0 DUP3 PUSH2 0x3E8 DUP8 PUSH2 0x18D SWAP2 SWAP1 PUSH2 0x480 JUMP JUMPDEST PUSH2 0x197 SWAP2 SWAP1 PUSH2 0x4C2 JUMP JUMPDEST SWAP1 POP DUP1 DUP3 PUSH2 0x1A5 SWAP2 SWAP1 PUSH2 0x525 JUMP JUMPDEST SWAP4 POP POP POP POP SWAP4 SWAP3 POP POP POP JUMP JUMPDEST PUSH1 0x0 DUP1 DUP5 GT PUSH2 0x1F5 JUMPI PUSH1 0x40 MLOAD PUSH32 0x8C379A000000000000000000000000000000000000000000000000000000000 DUP2 MSTORE PUSH1 0x4 ADD PUSH2 0x1EC SWAP1 PUSH2 0x5A2 JUMP JUMPDEST PUSH1 0x40 MLOAD DUP1 SWAP2 SUB SWAP1 REVERT JUMPDEST PUSH1 0x0 DUP4 GT DUP1 ISZERO PUSH2 0x205 JUMPI POP PUSH1 0x0 DUP3 GT JUMPDEST PUSH2 0x244 JUMPI PUSH1 0x40 MLOAD PUSH32 0x8C379A000000000000000000000000000000000000000000000000000000000 DUP2 MSTORE PUSH1 0x4 ADD PUSH2 0x23B SWAP1 PUSH2 0x431 JUMP JUMPDEST PUSH1 0x40 MLOAD DUP1 SWAP2 SUB SWAP1 REVERT JUMPDEST DUP3 DUP3 DUP6 PUSH2 0x251 SWAP2 SWAP1 PUSH2 0x480 JUMP JUMPDEST PUSH2 0x25B SWAP2 SWAP1 PUSH2 0x525 JUMP JUMPDEST SWAP1 POP SWAP4 SWAP3 POP POP POP JUMP JUMPDEST PUSH1 0x0 DUP1 REVERT JUMPDEST PUSH1 0x0 DUP2 SWAP1 POP SWAP2 SWAP1 POP JUMP JUMPDEST PUSH2 0x27C DUP2 PUSH2 0x269 JUMP JUMPDEST DUP2 EQ PUSH2 0x287 JUMPI PUSH1 0x0 DUP1 REVERT JUMPDEST POP JUMP JUMPDEST PUSH1 0x0 DUP2 CALLDATALOAD SWAP1 POP PUSH2 0x299 DUP2 PUSH2 0x273 JUMP JUMPDEST SWAP3 SWAP2 POP POP JUMP JUMPDEST PUSH1 0x0 DUP1 PUSH1 0x0 PUSH1 0x60 DUP5 DUP7 SUB SLT ISZERO PUSH2 0x2B8 JUMPI PUSH2 0x2B7 PUSH2 0x264 JUMP JUMPDEST JUMPDEST PUSH1 0x0 PUSH2 0x2C6 DUP7 DUP3 DUP8 ADD PUSH2 0x28A JUMP JUMPDEST SWAP4 POP POP PUSH1 0x20 PUSH2 0x2D7 DUP7 DUP3 DUP8 ADD PUSH2 0x28A JUMP JUMPDEST SWAP3 POP POP PUSH1 0x40 PUSH2 0x2E8 DUP7 DUP3 DUP8 ADD PUSH2 0x28A JUMP JUMPDEST SWAP2 POP POP SWAP3 POP SWAP3 POP SWAP3 JUMP JUMPDEST PUSH2 0x2FB DUP2 PUSH2 0x269 JUMP JUMPDEST DUP3 MSTORE POP POP JUMP JUMPDEST PUSH1 0x0 PUSH1 0x20 DUP3 ADD SWAP1 POP PUSH2 0x316 PUSH1 0x0 DUP4 ADD DUP5 PUSH2 0x2F2 JUMP JUMPDEST SWAP3 SWAP2 POP POP JUMP JUMPDEST PUSH1 0x0 DUP3 DUP3 MSTORE PUSH1 0x20 DUP3 ADD SWAP1 POP SWAP3 SWAP2 POP POP JUMP JUMPDEST PUSH32 0x4465784C6962726172793A20494E53554646494349454E545F494E5055545F41 PUSH1 0x0 DUP3 ADD MSTORE PUSH32 0x4D4F554E54000000000000000000000000000000000000000000000000000000 PUSH1 0x20 DUP3 ADD MSTORE POP JUMP JUMPDEST PUSH1 0x0 PUSH2 0x389 PUSH1 0x25 DUP4 PUSH2 0x31C JUMP JUMPDEST SWAP2 POP PUSH2 0x394 DUP3 PUSH2 0x32D JUMP JUMPDEST PUSH1 0x40 DUP3 ADD SWAP1 POP SWAP2 SWAP1 POP JUMP JUMPDEST PUSH1 0x0 PUSH1 0x20 DUP3 ADD SWAP1 POP DUP2 DUP2 SUB PUSH1 0x0 DUP4 ADD MSTORE PUSH2 0x3B8 DUP2 PUSH2 0x37C JUMP JUMPDEST SWAP1 POP SWAP2 SWAP1 POP JUMP JUMPDEST PUSH32 0x4465784C6962726172793A20494E53554646494349454E545F4C495155494449 PUSH1 0x0 DUP3 ADD MSTORE PUSH32 0x5459000000000000000000000000000000000000000000000000000000000000 PUSH1 0x20 DUP3 ADD MSTORE POP JUMP JUMPDEST PUSH1 0x0 PUSH2 0x41B PUSH1 0x22 DUP4 PUSH2 0x31C JUMP JUMPDEST SWAP2 POP PUSH2 0x426 DUP3 PUSH2 0x3BF JUMP JUMPDEST PUSH1 0x40 DUP3 ADD SWAP1 POP SWAP2 SWAP1 POP JUMP JUMPDEST PUSH1 0x0 PUSH1 0x20 DUP3 ADD SWAP1 POP DUP2 DUP2 SUB PUSH1 0x0 DUP4 ADD MSTORE PUSH2 0x44A DUP2 PUSH2 0x40E JUMP JUMPDEST SWAP1 POP SWAP2 SWAP1 POP JUMP JUMPDEST PUSH32 0x4E487B7100000000000000000000000000000000000000000000000000000000 PUSH1 0x0 MSTORE PUSH1 0x11 PUSH1 0x4 MSTORE PUSH1 0x24 PUSH1 0x0 REVERT JUMPDEST PUSH1 0x0 PUSH2 0x48B DUP3 PUSH2 0x269 JUMP JUMPDEST SWAP2 POP PUSH2 0x496 DUP4 PUSH2 0x269 JUMP JUMPDEST SWAP3 POP DUP3 DUP3 MUL PUSH2 0x4A4 DUP2 PUSH2 0x269 JUMP JUMPDEST SWAP2 POP DUP3 DUP3 DIV DUP5 EQ DUP4 ISZERO OR PUSH2 0x4BB JUMPI PUSH2 0x4BA PUSH2 0x451 JUMP JUMPDEST JUMPDEST POP SWAP3 SWAP2 POP POP JUMP JUMPDEST PUSH1 0x0 PUSH2 0x4CD DUP3 PUSH2 0x269 JUMP JUMPDEST SWAP2 POP PUSH2 0x4D8 DUP4 PUSH2 0x269 JUMP JUMPDEST SWAP3 POP DUP3 DUP3 ADD SWAP1 POP DUP1 DUP3 GT ISZERO PUSH2 0x4F0 JUMPI PUSH2 0x4EF PUSH2 0x451 JUMP JUMPDEST JUMPDEST SWAP3 SWAP2 POP POP JUMP JUMPDEST PUSH32 0x4E487B7100000000000000000000000000000000000000000000000000000000 PUSH1 0x0 MSTORE PUSH1 0x12 PUSH1 0x4 MSTORE PUSH1 0x24 PUSH1 0x0 REVERT JUMPDEST PUSH1 0x0 PUSH2 0x530 DUP3 PUSH2 0x269 JUMP JUMPDEST SWAP2 POP PUSH2 0x53B DUP4 PUSH2 0x269 JUMP JUMPDEST SWAP3 POP DUP3 PUSH2 0x54B JUMPI PUSH2 0x54A PUSH2 0x4F6 JUMP JUMPDEST JUMPDEST DUP3 DUP3 DIV SWAP1 POP SWAP3 SWAP2 POP POP JUMP JUMPDEST PUSH32 0x4465784C6962726172793A20494E53554646494349454E545F414D4F554E5400 PUSH1 0x0 DUP3 ADD MSTORE POP JUMP JUMPDEST PUSH1 0x0 PUSH2 0x58C PUSH1 0x1F DUP4 PUSH2 0x31C JUMP JUMPDEST SWAP2 POP PUSH2 0x597 DUP3 PUSH2 0x556 JUMP JUMPDEST PUSH1 0x20 DUP3 ADD SWAP1 POP SWAP2 SWAP1 POP JUMP JUMPDEST PUSH1 0x0 PUSH1 0x20 DUP3 ADD SWAP1 POP DUP2 DUP2 SUB PUSH1 0x0 DUP4 ADD MSTORE PUSH2 0x5BB DUP2 PUSH2 0x57F JUMP JUMPDEST SWAP1 POP SWAP2 SWAP1 POP JUMP INVALID LOG2 PUSH5 0x6970667358 0x22 SLT KECCAK256 DELEGATECALL DUP8 0x4D SWAP4 COINBASE MULMOD PUSH20 0xEB6D29F2CED2AC45A0CC5B87DD7BAEDF653536B4 PUSH32 0xF6A150364736F6C634300081200330000000000000000000000000000000000 "},"methodIdentifiers":{"getAmountOut(uint256,uint256,uint256)":"054d50d4","quote(uint256,uint256,uint256)":"ad615dec"}}}}}